{
  "contractName": "Mariage",
  "abi": [
    {
      "inputs": [
        {
          "internalType": "address",
          "name": "person",
          "type": "address"
        }
      ],
      "stateMutability": "nonpayable",
      "type": "constructor"
    },
    {
      "inputs": [
        {
          "internalType": "bool",
          "name": "isMaried",
          "type": "bool"
        }
      ],
      "name": "contractMariage",
      "outputs": [
        {
          "internalType": "bool",
          "name": "",
          "type": "bool"
        }
      ],
      "stateMutability": "nonpayable",
      "type": "function"
    }
  ],
  "bytecode": "0x608060405234801561001057600080fd5b5060405161029438038061029483398181016040528101906100329190610137565b336000806101000a81548173ffffffffffffffffffffffffffffffffffffffff021916908373ffffffffffffffffffffffffffffffffffffffff16021790555080600160006101000a81548173ffffffffffffffffffffffffffffffffffffffff021916908373ffffffffffffffffffffffffffffffffffffffff1602179055506000600160146101000a81548160ff02191690831515021790555050610164565b600080fd5b600073ffffffffffffffffffffffffffffffffffffffff82169050919050565b6000610104826100d9565b9050919050565b610114816100f9565b811461011f57600080fd5b50565b6000815190506101318161010b565b92915050565b60006020828403121561014d5761014c6100d4565b5b600061015b84828501610122565b91505092915050565b610121806101736000396000f3fe6080604052348015600f57600080fd5b506004361060285760003560e01c806338bfe44a14602d575b600080fd5b60436004803603810190603f9190609d565b6057565b604051604e919060d2565b60405180910390f35b600060019150819050919050565b600080fd5b60008115159050919050565b607d81606a565b8114608757600080fd5b50565b6000813590506097816076565b92915050565b60006020828403121560b05760af6065565b5b600060bc84828501608a565b91505092915050565b60cc81606a565b82525050565b600060208201905060e5600083018460c5565b9291505056fea264697066735822122071cd3719236fe3ead68e65b22ecc23627caeb135a82ad9a3374e4b4300f7570764736f6c634300080d0033",
  "immutableReferences": {},
  "source": "pragma solidity ^0.8.13;\r\n\r\ncontract Mariage\r\n{\r\n    address personne; \r\n    address personne2;\r\n\r\n    bool isMarried ; \r\n\r\n\r\n\r\n    constructor(address person)\r\n    {\r\n        personne = msg.sender ; \r\n        personne2 = person;\r\n        isMarried = false ;\r\n    \r\n    }\r\n\r\n    function  contractMariage (bool isMaried) public returns (bool)\r\n    {\r\n     isMaried = true;\r\n     return isMaried;\r\n    }\r\n}\r\n\r\n\r\n\r\n",
  "sourcePath": "C:\\Users\\slot1\\OneDrive\\OneDrive\\Bureau\\Blockchain\\contracts\\Mariage.sol",
  "compiler": {
    "name": "solc",
    "version": "0.8.13+commit.abaa5c0e.Emscripten.clang"
  },
  "schemaVersion": "3.4.15",
  "updatedAt": "2023-08-26T20:05:29.528Z",
  "devdoc": {
    "kind": "dev",
    "methods": {},
    "version": 1
  },
  "userdoc": {
    "kind": "user",
    "methods": {},
    "version": 1
  }
}